:1000000002002A7A2D79FA78FAD8FED9FADAF6229D
:100010007A5A79FA78FAD8FED9FADAF6227AB479E5
:10002000FA78FAD8FED9FADAF62275817F75E800F7
:100030007595007591F87592927593B07594B07539
:100040008E80758FF87EF97D90B2E820EA2F20E946
:100050006E20E80EB2EA7EF97D907F021201D40292
:1000600000497591F97592907593FF7594FF758E9F
:10007000FF758FFF7EF97D907F0202004920E9061F
:1000800020E8091201E920E8031200F67591FF75D6
:1000900092927593FF7594B0758EFF758FF812006C
:1000A000107591F87592FF7593B07594FF758E80F9
:1000B000758FFF1200107EF97D907F0202004912B9
:1000C00000C2DF0620E82012018B7591F87592922C
:1000D0007593B07594B0758E80758FF87F017EF939
:1000E0007D90B2EE12004920EB0612001D1201B8FD
:1000F0001200101201B820EB487591FF75924075FF
:100100009347759447758E06758F0912001D75917A
:10011000F87592927593B07594B0758E80758FF85E
:1001200012001D7591A47592F97593B07594487578
:100130008E0C758F4612001D7EF97D907F020200A5
:10014000497591FF759240759347759447758E0672
:10015000758F091200107591F87592927593B075AC
:1001600094B0758E80758FF81200107591A47592F9
:10017000F97593B0759448758E46758F46B2E9123D
:1001800000107EF97D907F0202004920EB061200EC
:100190001D12019A12001012019AAC8F858E8F8564
:1001A000948E8593948592938591928D91B2EBEE86
:1001B000FDECFE7F01020049AC91859291859392FE
:1001C000859493858E94858F8E8E8FEDFEECFD7FCA
:1001D000010200497591F87592927593B07594B0CB
:1001E000758E80758FF802004920EB337591F97593
:1001F00092907593F8759492758EB0758FB01200C9
:10020000107591FF7592FF7593FF7594FF758EFFC2
:10021000758FFF1200107EF97D907F0202004975F4
:1002200091F97592907593F8759492758EB0758F5B
:10023000B01200037591FF7592FF7593FF7594FFDF
:10024000758EFF758FFF1200037EF97D907F02028D
:02025000004963
:00000001FF
