:10F0000002F00375816012F7A5E582600302F054F7
:10F01000758200758300758400758500780079001D
:10F02000E8496012E475860093A3758601F0A31881
:10F03000B8FFED1980EA7586007582007583007C43
:10F04000007D00EC4D600AE4F0A31CBCFFF51D80C0
:10F05000F212F78612F67380FEE582C2DE3392DF8B
:10F06000D2DEA2DFC2DE92E03392DFD2DEA2DFC2C6
:10F07000DE92E03392DFD2DEA2DFC2DE92E0339294
:10F08000DFD2DEA2DFC2DE92E03392DFD2DEA2DF89
:10F09000C2DE92E03392DFD2DEA2DFC2DE92E03344
:10F0A00092DFD2DEA2DFC2DE92E03392DFD2DEA2B6
:10F0B000DFC2DE92E0F5822275820022C2DD758217
:10F0C0000512F05975825512F059E58220E0F5D20B
:10F0D000DD2275CBFF75CAF775C83475985222AA20
:10F0E00082BA0A0810990280FB75990D1099028066
:10F0F000FB8A992210980280FBAA993000098A8223
:10F10000C00212F0DFD0028A822212F0F4AA82C07A
:10F110000212F0DFD0028A8222AA82AB83ACF08A8C
:10F12000828B838CF012F789FDFE60188E82C002FC
:10F13000C003C00412F0DFD004D003D0020ABA002A
:10F14000DE0B80DB22E582FA30E60474092AFA74C9
:10F150000F5AF5822212F10A12F145E582C454F0E9
:10F16000F50812F10A12F145E5824208850882226B
:10F17000AA82AB83C2DD758203C002C00312F059BC
:10F1800075821D12F059D0038B048C82C00312F0DB
:10F1900059D003D0028A8212F05975825512F05963
:10F1A000D2DD22C2DD75820612F059D2DDC2DD75D4
:10F1B00082D812F05975821D12F05975820012F032
:10F1C0005975820012F059D2DD02F0BCE516F0222A
:10F1D000E0F58222AA82AB83C2DD758206C002C03E
:10F1E0000312F059D2DDC2DD75820212F059758228
:10F1F0001D12F059D0038B048C82C00312F059D039
:10F2000003D0028A8212F05985098212F059D2DDA8
:10F2100002F0BCAA82AB83C2DD758206C002C003C5
:10F2200012F059D2DDC2DD75820212F05975821DCD
:10F2300012F059D0038B048C82C00312F059D00312
:10F24000D0028A8212F0597A00C3EA950D501FEA63
:10F25000250AFBE4350BFCAD0C8B828C838DF01200
:10F26000F789F582C00212F059D0020A80DBD2DDA4
:10F2700002F0BC75C301C2DD75820312F0597582BC
:10F280001D12F05975820012F05975820012F05962
:10F29000900000C2DEA2DFD2DE33C2DEA2DFD2DE09
:10F2A00033C2DEA2DFD2DE33C2DEA2DFD2DE33C261
:10F2B000DEA2DFD2DE33C2DEA2DFD2DE33C2DEA2C6
:10F2C000DFD2DE33C2DEA2DFD2DE33F0A3E583304D
:10F2D000E7C1D2DD2212F273D2DC75C80075980046
:10F2E00075CB0075CA0075C3007581070200002246
:10F2F00012F273D2DC75C80075980075CB0075CA20
:10F300000075E8FF7595FF75C30075810702C000A1
:10F310002212F10A858214743AB51402800302F3B2
:10F32000FE75152E12F15585821185111312F155B6
:10F33000AA828A0E750F00AA0EEA2513F513850E10
:10F340000F750E0012F155858214E5142513F5137F
:10F35000AA147B00EA250EF50EEB350FF50F12F11E
:10F3600055858212E5122513F513751000C3E510BB
:10F370009511501D12F15585821474C02510400757
:10F38000E5102421F8A614E5142513F513051080C3
:10F39000DC12F155E582FA2513F513E51124BF506F
:10F3A00003751301E5137048AA12BA00028014BA5B
:10F3B00001028031BA03028021BA042D12F1A3D2D6
:10F3C000E98032750A21750B00750C4085100D859A
:10F3D0000E82850F8312F213801B90F77275F080F6
:10F3E00012F1198010D2EA800C75153FD2EA80051F
:10F3F000751558D2E985158212F0DF02F3117455A4
:10F40000B51402800302F31175E80075950075E8E4
:10F410000102F311AA82AB83ACF07D007E008A82E8
:10F420008B838CF012F789FF700302F4A8C3EF649A
:10F430008094B0401174B98FF063F08095F040066D
:10F44000EF24D0FF80398A828B838CF012F789F801
:10F45000C3648094C1401174C688F063F08095F055
:10F46000400674C928FF8017C3E8648094E14038DF
:10F4700074E688F063F08095F0402D74A928FF8D24
:10F4800017EEC454F0C517C4C5176517C51754F057
:10F49000C5176517F5187800EF2517FDE83518FE34
:10F4A0000ABA00010B02F41E8D828E8322E582FAD5
:10F4B000C4540F90F76193F582C00212F0DFD002BE
:10F4C000740F5A90F76193F58202F0DFAA82AB8342
:10F4D0008B048C82C002C00312F4ADD003D0028A28
:10F4E0008202F4AD7AFFABE8AC95EB604AEB30E01A
:10F4F000047A008036EB30E1047A01802EEB30E2B2
:10F50000047A028026EB30E3047A03801EEB30E4B9
:10F51000047A048016EB30E5047A05800EEB30E6C1
:10F52000047A068006EB30E7027A07E5E870FCEC27
:10F5300030E10474082AFA8A822212F2737A007B7C
:10F54000008B048A05ECC4540F90F77693F58F7402
:10F550000F5C90F77693F58EEDC4540F90F7769389
:10F56000F594740F5D90F77693F5938A828B83C040
:10F5700002C00312F1D0E582FCC4540F90F77693D9
:10F58000F592740F5C90F77693F591C00412F4E451
:10F59000AD82D004D003D002BD10005040E59530BC
:10F5A000E020EBC454F0CAC4CA6ACA54F0CA6AFB69
:10F5B0005302F053037F8D067F00EE4202EF4203B9
:10F5C000801BECC454F0FC5304F0ED4CF5168A8219
:10F5D0008B83C002C00312F1CCD003D00220FB1FEA
:10F5E00030FBFDC2E9C2EA0ABA00010BC374FF9AFC
:10F5F000747F9B400302F5417A007B0002F54120B5
:10F60000FA1F30FAFDC2E9C2EA1ABAFF011BC3743D
:10F61000FF9A747F9B400302F5417AFF7B7F02F5DE
:10F620004130F90302F54130F9FDC002C00312F187
:10F63000A3D003D002D2E97C007D0074802D402E3F
:10F640008C068D078E0A8F0B750C00750D408C8211
:10F650008D83C002C003C004C00512F213D005D0D0
:10F6600004D003D00274402CFCE43DFD80CDD2EAEE
:10F6700002F541C2DC30F80930FA0630FB0312F221
:10F68000D520FB2A758FA1758E867594837593C1DD
:10F690007592C27591C230FBFD7591FF7592FF7531
:10F6A00093FF7594FF758EFF758FFF12F2F020FAAD
:10F6B00018758FBF758EBF7594BF7593BF7592BF58
:10F6C0007591BF30FAFD12F53A75C30175948375D3
:10F6D00093A37592A375918730F8FD75E801759530
:10F6E000007591FF7592FF7593FF7594FF758EFFFE
:10F6F000758FFF12F0D2751600907FFF12F1CC309B
:10F70000980DAA99C298BA55028053C2998A9990C5
:10F710007FFF12F1D0E58260E6C2E9C2EA75160009
:10F72000907FFF12F1CC12F1A3D2E97A007B007432
:10F73000802B40268A048B058C0A8D0B750C007576
:10F740000D408A828B83C002C00312F213D003D013
:10F750000274402AFAE43BFB80D5D2EA80A102F38E
:10F76000113031323334353637383941424344452C
:10F77000460044453100C0F9A4B0999282F88090C7
:10F780008883C6A1868EC2002220F71430F6148822
:10F7900083A88220F507E6A88375830022E280F71C
:10F7A000E49322E0227582002200000000000000A5
:10FFE00075C300002200000075C30100220000005C
:00000001FF
