:1000000002000375817F75E8007595007591F8759C
:1000100092927593B07594B0758E80758FF87F004D
:100020007E007D007C00020067BF013B20E90C30B0
:10003000E912BF003220E90330E909BE012920E8B6
:100040000C30E812BE002020E80330E809BD01179B
:1000500020EB0C30EB0DBD000E20EB0330EB04BCAD
:10006000010522BC00012220EA0F20E90920E80353
:100070000200B90200F802011820E90F20E803028B
:1000800000A320EB030205850204D220E80302004E
:100090009A20EB030207190206DE20EB0302068B0F
:1000A00002063820EB0302049702045C7AB479FA62
:1000B00078FAD8FED9FADAF6227F007E007D007C3D
:1000C000007591F87592927593B07594B0758E80A5
:1000D000758FF81200D90200B920FB0620EA06301D
:1000E000EA06B2E8220200290200327A5A79FA7846
:1000F000FAD8FED9FADAF6227F007E007D017C0074
:100100007591F97592907593FF7594FF758EFF75D3
:100110008FFF1200D90200F820E80C02011E20EB2C
:10012000030202C602039120EB030201300201FB2D
:100130007F007E017D017C007591F8759292759328
:10014000B07594B0758E80758FF81200D91200AC1E
:100150007591927592B07593B0759480758EF8759F
:100160008FF91200D91200AC7591B07592B07593E9
:10017000807594F8758EF9758F901200D91200ACC5
:100180007591B07592807593F87594F9758E907528
:100190008FF81200D91200AC7591807592F87593A2
:1001A000F9759490758EF8758F921200D91200AC83
:1001B0007591F87592F97593907594F8758E92759E
:1001C0008FB01200D91200AC7591F97592907593A9
:1001D000F8759492758EB0758FB01200D91200AC7C
:1001E0007591907592F87593927594B0758EB075FF
:1001F0008F801200D91200AC0201307F007E017D99
:10020000017C017591F87592927593B07594B075F3
:100210008E80758FF81200D91200EB75919275924D
:10022000B07593B0759480758EF8758FF91200D9FA
:100230001200EB7591B07592B07593807594F87556
:100240008EF9758F901200D91200EB7591B07592EE
:10025000807593F87594F9758E90758FF81200D9A2
:100260001200EB7591807592F87593F975949075FD
:100270008EF8758F921200D91200EB7591F8759275
:10028000F97593907594F8758E92758FB01200D9A8
:100290001200EB7591F97592907593F875949275BB
:1002A0008EB0758FB01200D91200EB7591907592D7
:1002B000F87593927594B0758EB0758F801200D9D1
:1002C0001200EB0201307F007E017D007C00759101
:1002D000F87592927593B07594B0758E80758FF89D
:1002E0001200D91200AC7591907592F875939275C1
:1002F00094B0758EB0758F801200D91200AC7591D4
:10030000F97592907593F8759492758EB0758FB05B
:100310001200D91200AC7591F87592F97593907529
:1003200094F8758E92758FB01200D91200AC759149
:10033000807592F87593F9759490758EF8758F9213
:100340001200D91200AC7591B07592807593F87552
:1003500094F9758E90758FF81200D91200AC7591D2
:10036000B07592B07593807594F8758EF9758F900D
:100370001200D91200AC7591927592B07593B07558
:100380009480758EF8758FF91200D91200AC0202B4
:10039000C67F007E017D007C017591F87592927593
:1003A00093B07594B0758E80758FF81200D91200D5
:1003B000EB7591907592F87593927594B0758EB0B7
:1003C000758F801200D91200EB7591F975929075B6
:1003D00093F8759492758EB0758FB01200D9120093
:1003E000EB7591F87592F97593907594F8758E92F6
:1003F000758FB01200D91200EB7591807592F87567
:1004000093F9759490758EF8758F921200D9120039
:10041000EB7591B07592807593F87594F9758E901F
:10042000758FF81200D91200EB7591B07592B07506
:1004300093807594F8758EF9758F901200D912001B
:10044000EB7591927592B07593B0759480758EF836
:10045000758FF91200D91200EB0203917F017E0023
:100460007D007C017591F97592907593F875949261
:10047000758EB0758FB01200D91200EB7591FF75B3
:1004800092FF7593FF7594FF758EFF758FFF1200B5
:10049000D91200EB02045C7F017E007D007C0075B8
:1004A00091F97592907593F8759492758EB0758FD9
:1004B000B01200D91200AC7591FF7592FF7593FFD1
:1004C0007594FF758EFF758FFF1200D91200AC0274
:1004D00004977F017E007D017C017591FF7592FF7D
:1004E0007593FF7594FF758EFF758FFF1200D912FB
:1004F00000EB7591FF7592FF7593FF7594FF758EF4
:10050000FF758FF81200D91200EB7591FF7592FFFD
:100510007593FF7594FF758E80758FF81200D91250
:1005200000EB7591FF7592FF7593FF7594B0758E12
:1005300080758FF81200D91200EB7591FF7592FF4C
:100540007593B07594B0758E80758FF81200D912BE
:1005500000EB7591FF7592927593B07594B0758E9E
:1005600080758FF81200D91200EB7591F875929290
:100570007593B07594B0758E80758FF81200D9128E
:1005800000EB0204D27F017E007D017C007591FFAB
:100590007592FF7593FF7594FF758EFF758FFF122F
:1005A00000D91200AC7591FF7592FF7593FF759499
:1005B000FF758EFF758FF81200D91200AC7591FF90
:1005C0007592FF7593FF7594FF758E80758FF81285
:1005D00000D91200AC7591FF7592FF7593FF759469
:1005E000B0758E80758FF81200D91200AC7591FF2E
:1005F0007592FF7593B07594B0758E80758FF812F3
:1006000000D91200AC7591FF7592927593B07594F4
:10061000B0758E80758FF81200D91200AC7591F804
:100620007592927593B07594B0758E80758FF8122F
:1006300000D91200AC0205857F017E017D007C019E
:100640007591FF759240759347759447758E067541
:100650008F091200D91200EB7591F875929275937B
:10066000B07594B0758E80758FF81200D91200EBBA
:100670007591A47592F97593B0759448758E0C7543
:100680008F461200D91200EB0206387F017E017DF1
:10069000007C007591FF759240759347759447757E
:1006A0008E06758F091200D91200AC7591F87592FB
:1006B000927593B07594B0758E80758FF81200D9CD
:1006C0001200AC7591A47592F97593B07594487544
:1006D0008E0C758F461200D91200AC02068B7F017A
:1006E0007E017D017C017591FF7592927593FF7576
:1006F00094B0758EFF758FF81200D91200EB7591CA
:10070000F87592FF7593B07594FF758E80758FFFA5
:100710001200D91200EB0206DE7F017E017D017C12
:10072000007591FF7592927593FF7594B0758EFF69
:10073000758FF81200D91200AC7591F87592FF759B
:1007400093B07594FF758E80758FFF1200D91200DB
:04075000AC020719D7
:00000001FF
